:020000040800F2
:1000000000020020C1000008B102000891040008AD
:10001000910400089104000891040008910400086C
:10002000910400089104000891040008910400085C
:10003000910400089104000891040008A10500083B
:10004000910400089104000891040008910400083C
:10005000910400089104000891040008910400082C
:10006000910400089104000891040008910400081C
:10007000910400089104000891040008810500081B
:10008000610500089104000891040008910400082B
:1000900091040008910400089104000891040008EC
:1000A00091040008910400089104000891040008DC
:1000B00091040008910400089104000891040008CC
:1000C00072B6244880F30888234880F30988022008
:1000D00080F31488BFF36F8F01F072F800F0A0FA7C
:1000E0001E481F491B4A914202DA08600431FAE7B0
:1000F0001C49194A914202DA08600431FAE71A49A8
:100100001A4A1B4B9A4204DA086810600431043220
:10011000F8E700201749184A914202DA08600431D2
:10012000FAE701F00DF801F043F8144C144DAC421D
:1001300003DA216888470434F9E700F0B9FD114C6F
:10014000114DAC4203DA216888470434F9E70F49BE
:1001500008470000000200200004002055555555B6
:100160000000002000020020E0130008000400202E
:10017000000400200004002000070020C000000848
:10018000C0000008C0000008C0000008A11100085D
:10019000F0B544464D4656465F46F0B46B46CB60DC
:1001A000C3689D46F0BCA046A946B246BB46F0BD1A
:1001B00000F0D6FA62B6281CA047002000F090FF9D
:1001C00000F0FEFA00F084FA00F0CAFA014A024B8D
:1001D0001360FEE704ED00E0000000800000000076
:1001E000024B034A9B699A61FEE7C0462004002047
:1001F000781300080000000000000000000000006C
:10020000826970B51369D46805001C40FF23234040
:10021000DB431361A30704D543681B69002B00D09F
:100220009847630705D56B689B69002B01D02800B0
:100230009847230705D56B681B6A002B01D028005F
:100240009847E30605D56B689B6A002B01D0280010
:100250009847E30705D56B689B68002B01D0280001
:10026000984770BD00000000000000000000000082
:100270000F3011D072B6EFF30983203B83F3098866
:1002800080225204DA61064A11689269896892688C
:10029000914202D8034A9A617047034A9A61FBE788
:1002A00020040020CC010008C1010008000000006B
:1002B000EFF30983203383F3098862B67047C046A1
:1002C000054B1A6B002A03D15A6B002A00DD7047D8
:1002D00072B6024ADA62FEE72004002080130008AA
:1002E000054B1A6B002A03DB5A6B002A00DD7047AE
:1002F00072B6024ADA62FEE7200400208813000882
:1003000010B50400FFF7ECFF002C19D02023E25CAD
:10031000002A10D00F2A0ED00022E254A2680B4B04
:100320001B6899689142FBD25A6823606260200082
:1003300014605C6010BD72B6054A044BDA62FEE7D9
:1003400072B6034A014BDA62FEE7C0462004002081
:100350000012000800000000000000000000000083
:1003600072B6074B1A6B002A02DD596B002903D0C5
:1003700072B6044ADA62FEE7013A1A6362B670475F
:10038000200400209013000800000000000000007E
:1003900072B6074B1A6B002A02DB596B002903D097
:1003A00072B6044ADA62FEE701321A6362B6704737
:1003B0002004002098130008000000000000000046
:1003C000064B1A6B002A05DD5A6B002A02DD00225B
:1003D0005A63704772B6024ADA62FEE720040020D0
:1003E000A013000800000000000000000000000052
:1003F000064B1A6B002A02DD5A6B002A03D072B634
:10040000034ADA62FEE701225A63704720040020A3
:10041000A813000800000000000000000000000019
:1004200070B5040072B6FFF7E3FF2023E35C072BEF
:100430000ED8114A9B00D3589F46656AFFF750FFBC
:10044000AB680133AB60226863681A60226853604E
:1004500001235B4263622000FFF752FFFFF7B0FF0A
:1004600062B670BD0022636A20001A6001235B42FD
:100470006362FFF745FFF1E7C411000800000000C8
:1004800030BFFDE700000000000000000000000099
:10049000FEE7C04600000000000000000000000071
:1004A00070B5174D0400AE69FFF70AFF2A68B368FC
:1004B000AA4202D0926893421ED300226262A268CE
:1004C0009A4215D93000FFF71BFF012220230100BB
:1004D000AC61E254EFF30983C269243B9A4203D82A
:1004E0002000FFF755FE70BD72B6064BEB62FEE7CB
:1004F0002000FFF705FFF6E772B6034BEB62FEE75D
:1005000020040020B01300081413000800000000AD
:1005100070B50600FFF7D4FE20230C4CA5692068B7
:10052000EE540268546022600122A061C254EFF3CD
:100530000983EA69243B9A4203D82900FFF728FE81
:1005400070BD72B6024BE362FEE7C0462004002095
:10055000B0130008000000000000000000000000D0
:1005600010B57446FFF714FF0448FFF749FEFFF784
:10057000F7FE2000FFF77CFE10BDC046B804002047
:1005800010B57446FFF704FF0448FFF739FEFFF784
:10059000E7FE2000FFF76CFE10BDC0469C04002063
:1005A000F8B54F464646C0B4F146FFF7F1FE72B6C5
:1005B000FFF71EFFFFF794FEFFF792FE164D2F0088
:1005C000AB6AEC6901331C37AB62BC4217D0A3683D
:1005D000013BA360002B12D198464346E668E360D6
:1005E00023685F60EB61FFF7EBFE62B62069B047FE
:1005F00072B6FFF7FDFEEC69A368002BEDD0FFF7A4
:10060000DFFE62B6FFF7ACFE4846FFF731FE0CBCDA
:1006100090469946F8BDC046200400200000000026
:100620000123022027490A6813430B600A68254BFF
:100630001042FBD003215A680C208A4319005A60EB
:100640005A685A604B681F4A0340FBD1F920116871
:10065000014011605360516B01330B435363F73812
:10066000516B184B0842FBD00122596A02200A4301
:100670005A621A00516A134B0842FBD0A02292031F
:100680005A60002280218020DA621A631A684904C5
:100690000A431A60800419680A4A0142FBD01121FA
:1006A000094B0C201960022351680B4353605368B7
:1006B00004490340082BFAD18A69073B13438B6135
:1006C0007047C046001002400020024000000000B9
:1006D0002023F0B54746984642461D4D80B42F680A
:1006E000AC693E681F3B75602E60BB54AF61FFF77D
:1006F000F7FD002C24D04346E35C002B1CD00F2BCD
:100700001AD000234246A354A36800E03668B268BA
:100710009A42FBD87368266063601C607460EFF3D4
:100720000983E269243B9A420ED838002100FFF782
:100730002FFD04BC9046F0BD72B6064BEB62FEE79F
:1007400072B6044BEB62FEE772B6034BEB62FEE758
:10075000200400202C120008B01300080000000044
:10076000064B1A6B002A04D1596B002901DD5A632C
:10077000704772B6024ADA62FEE7C04620040020E3
:10078000C01300080000000000000000000000008E
:1007900010B5FFF7E5FF074B1A689A4204D0996934
:1007A00092688968914201D362B610BD72B6024A5E
:1007B000DA62FEE720040020581300080000000061
:1007C000064B1A6B002A02D15A6B002A03D072B66C
:1007D000034ADA62FEE701225A63704720040020D0
:1007E000C813000800000000000000000000000026
:1007F00070B505000C0072B6FFF7E2FFFFF770FD61
:10080000002C02D0631E234204D072B6134A144B4C
:10081000DA62FEE7134960420A68EB18013A1419DC
:10082000114A044012680340121B93420FD8E31888
:100830000B60FFF795FF0A4B1A689A4204D099693A
:1008400092688968914204D362B6200070BD00248A
:10085000EFE772B6054ADA62FEE7C04618120008F2
:100860002004002020060020D404002040130008AB
:10087000F0B55F4656464D464446F0B483B001900D
:1008800072B6FFF79DFF2222AD4C2669B35C01339F
:10089000B354FFF765FF2368A34204D0A2699B68A5
:1008A00092689A4240D362B6019BF269934200D1AA
:1008B0008BE072B6FFF784FF33690093A34200D147
:1008C00080E022229B5CFF2B00D177E0009901336E
:1008D0008B54FFF745FF2368A34204D0A2699B68AD
:1008E00092689A4224D362B672B6FFF769FF222259
:1008F000B35C002B00D174E0013BB354326A914BDE
:1009000013400F2B18D0FFF72BFF2368A34204D00E
:10091000A2699B6892689A425FD362B6009B002BE3
:1009200000D1A6E1009EBFE772B6874BE362FEE707
:1009300072B6854BE362FEE7736932691A61326908
:100940005361FFF70DFF2368A34204D0A2699B689F
:1009500092689A4249D362B621230322F35C134082
:10096000012B21D0022BD9D1356CF66972B6FFF775
:1009700027FFFFF7B5FC002D12D0002E10D02B68FA
:1009800033602E60FFF7ECFE2368A342C5D0A26956
:100990009B6892689A42C0D272B66C4BE362FEE7E3
:1009A00072B66B4BE362FEE7F569002D02D00723B8
:1009B0001D421ED072B6674BE362FEE772B6664B0D
:1009C000E362FEE70023009383E7300003B03CBC02
:1009D00090469946A246AB46F0BD72B65F4BE362C5
:1009E000FEE772B65E4BE362FEE772B65B4BE36214
:1009F000FEE70823083D2E68994637006B68B1442E
:100A00000733DB086B60103772B6FFF7D9FEA369B6
:100A10009A46FFF755FC002F00D126E1B069002867
:100A200037D020239C4653469A6883689A4214D94B
:100A300063468260C35C062B00D101E1072B00D125
:100A4000EAE0002B09D101222023C2540268436846
:100A50001A6002685360FFF753FC3B0052461B6864
:100A60009F4203D0996890688142F8D292465146DD
:100A700013605A6806204A60116059604F62FFF7A0
:100A800047FDB3699A4500D1F5E072B6354BE36294
:100A9000FEE75346B3619B6BF36153469F63FFF7D9
:100AA0005FFE2368A34205D0A2699B6892689A42C0
:100AB00000D2EDE062B64B4649469D4206D35A68E5
:100AC0000132D2009A18954200D2DDE01A689942AC
:100AD00001D09D4203D9002A03D0954201D31300CF
:100AE000EBE72A601D60696828684A1CD200AA18D2
:100AF000824206D1506884466144013169601268BF
:100B00002A6059684A1CD2009A18954200D17AE0AE
:100B1000A3699A4672B6FFF753FE53469B6B002BB0
:100B20006DD09A689346524503D072B60E4BE3627D
:100B3000FEE79F421AD072B60B4BE362FEE7C04657
:100B400020040020FF00FF00F41100084C130008EF
:100B500064120008F0120008E4110008581300089D
:100B6000241300080C12000858120008F369994673
:100B700053464A469A63FFF7A3FB3569AF423BD021
:100B80005346DB6BA8469A464D46002D0AD0FFF728
:100B900097FB2B689D4203D09B689A4500D29A46EA
:100BA000ED68F2E7524645465B469A602B68404640
:100BB00033615F60AB6BB561F361AF63FFF7A0FBBF
:100BC000FFF77EFBFFF78CFB2268A36992689B68A6
:100BD0009A4201D9FFF77CFDFFF7C2FD2368A342CB
:100BE00000D19AE6A2699B6892689A4200D394E683
:100BF00072B6294BE362FEE70023B361ECE772B6FD
:100C0000264BE362FEE76A688A1801325A602A6856
:100C10001A60A3699A467DE74368016894461960A3
:100C200001684B60416A0B001B68994202D09A68C8
:100C30009445F9D95A6803604260106058600CE727
:100C40004168036890460B6003685960416A0B0075
:100C50001B68994202D09A689045F9D95A68036096
:100C60004260106058608868DDE672B60C4BE36243
:100C7000FEE71800AAE653469B6B9F4200D10EE7A1
:100C800072B6074BE362FEE772B6064BE362FEE71D
:100C900072B6014BE362FEE73413000858120008F5
:100CA0000C120008F0120008000000000000000014
:100CB000DF4B01219A6AF0B500224F464646494271
:100CC000C0B499629A62186919611A61D968D948E1
:100CD000802401438020D960DA60D969400501434E
:100CE000D548D9610168640021430160C021186AB8
:100CF00089000140802087B08000814203D080219C
:100D0000490219621A628020C94B00021A6A024223
:100D100007D18022196A9200114319621A6A0243AC
:100D20001A629C21C24AC9035369C4480B435361E8
:100D3000012190220023D205494253609160D06086
:100D4000BF4880245061BF48A4021062BE4853626D
:100D50001060C020BD4A800253609060BC480125ED
:100D6000D060BC485061136253621460BA4ABB4CF5
:100D700053609360D4605061136253621360B84A49
:100D800053609360D46080245061042013625362E6
:100D90001360B44AE40515705360D3601074946115
:100DA000B14A80241074B14815705360D3609061CB
:100DB000AF4AB04824065060072093601060AE48E8
:100DC000C2691202120A2243AC4CC26122001C32D8
:100DD000E26122626162AA4AAA49A3601160AA493B
:100DE000AA4AA3621160AA4AAA49236363632460E2
:100DF00064601160110010311161516159219360DB
:100E0000D360936180226354E36623675A33E554C9
:100E1000A14B2264236523006267220038332361DB
:100E20006361A3619D4B6032226663652200582393
:100E30006432E5546266A266994B026AA464134068
:100E4000E464036262B6974D2800FFF711FD0028A5
:100E500003D072B6944BE362FEE729002B005522C3
:100E6000D8311A7001339942FBD172B6FFF7A8FC52
:100E7000FFF736FAAC232A00ED506C32103BEA50F3
:100E80008A4B8022EB67002398210220884EAB50CA
:100E90000C32AE508B3A6A501831685401316B54A1
:100EA0001B316A5004396B5004396B50B233EA5429
:100EB000804A0A3BEA502800A422083BEC506369B0
:100EC0009030AB502A001861B823B832EA502B009A
:100ED000BC22BC33AB500432AB506061FFF7E0FA88
:100EE000FFF756FC744D2800FFF7C2FC002803D022
:100EF00072B6724BE362FEE729002B00552249319E
:100F0000FF311A7001338B42FBD172B6FFF758FCE8
:100F10008E232A005B00ED50DC32103BEA50684A19
:100F2000203BEA500023F02284210220AB500C32F7
:100F3000AE5049007C3A6A50183168542221FF3182
:100F40006B541B316A50B832AB50043AAB50343A50
:100F50002333FF3AFF33EA545A4A0A3BEA508A22C3
:100F6000083BEC5063695200681CAB50FF302A000C
:100F7000186194232932FF325B00EA502B0096223D
:100F80002D33FF335200AB500432AB506061FFF79A
:100F900087FAFFF7FDFB4C4B012698464B4F01ADFE
:100FA000764272B6FFF70CFCFFF78AF9A3699946FF
:100FB000FFF796F94B462B614346FA22EB60E36953
:100FC00092009968B94204D81B68521A99689142F4
:100FD000FAD359682B6069600D605D60AA609968FA
:100FE00008208A1A9A606662FFF792FAFFF778F98A
:100FF000049B002B0CD0FFF773F9A9682B688C4673
:101000009A6862449A606A6813602B685A606662E4
:10101000FFF7A6FB2368A34204D0A2699B689268ED
:101020009A4201D362B6BCE772B6294BE362FEE78F
:1010300000100240FFFFBFFF007000400000556538
:1010400030FF000022220011AAA0802A00040048DC
:1010500055555455FFFF000000080048555555559B
:10106000001400489C040020B80400200004004044
:1010700010E000E07FBB000000ED00E02004002055
:10108000200600200007002000180020D4040020C3
:1010900000040020F1070008FC12000800020020F4
:1010A000FFFF00FF2806002040120008810400080E
:1010B000B1010008D0130008D80400206413000810
:1010C000E1010008D813000821040008E70300002C
:1010D000581300080000000000000000000000009D
:1010E00070B5060072B6FFF76BFB114DAC69666216
:1010F0002600A06A2836864206D00368A362FFF75E
:10110000FFF8A06AB042F8D12223E35C002B08D19B
:101110002123E35C9B0704D1226963691A61226978
:1011200053610F20FFF7F4F972B6024BEB62FEE752
:10113000200400204C120008000000000000000005
:1011400080229446F0B50026104F114D114C124BE1
:101150001249BC449C420DD91A0001C901C29442F3
:10116000FBD8DA431419A4080134A4001B199D42CA
:1011700002D940C39D42FCD81037674504D0BC68F3
:10118000FD6839687B68E5E7F0BDC046701200086D
:10119000000700200007002000070020E0130008DF
:1011A000FEE7C04600000000000000000000000054
:1011B0007047C04600000000000000000000000072
:0411C0007047C0466E
:1011C4005C0400085004000850040008640400088B
:1011D400460400083A0400085004000846040008C5
:1011E40063685265674E657874546872656164001B
:1011F4006368537973556E6C6F636B0063685363F4
:10120400685265616479490063684D74784C6F6312
:101214006B5300006368436F7265416C6C6F63418C
:101224006C69676E656449006368536368526561FD
:10123400647941686561644900000000636854682A
:1012440064437265617465006368546864457869D1
:101254007453000063684D7478556E6C6F636B0053
:101264006368506F6F6C467265654900E01300084F
:10127400000700200007002000070020E0130008FA
:10128400000000000000000000000000E01300085F
:10129400000000000000000000000000E01300084F
:1012A400000000000000000000000000E01300083F
:1012B400000000000000000000000000E01300082F
:1012C400000000000000000000000000E01300081F
:1012D400000000000000000000000000E01300080F
:1012E4000000000000000000000000006368486582
:1012F40061704672656500006D61696E00160020BC
:10130400040444080C1014181C20212200000000BE
:10131400636853636857616B657570530000000020
:10132400636854686452656C65617365000000000D
:101334006368537973556E6C6F636B00636853799C
:1013440073556E6C6F636B006368537973556E6C81
:101354006F636B006368537973556E6C6F636B00D6
:101364006368546864437265617465537461746935
:101374006300000066616465720000005356233107
:1013840031000000535623313000000053562339F6
:101394000000000053562338000000005356233742
:1013A400000000005356233600000000737461638C
:1013B4006B206F766572666C6F7700005356233529
:1013C40000000000535623340000000069646C657B
:0C13D400000000006E6F6E616D6500008F
:04000005080000C12E
:00000001FF
