:020000040800F2
:1000000000020020C10000080102000821030008CE
:100010002103000821030008210300082103000830
:100020002103000821030008210300082103000820
:100030002103000821030008210300082103000810
:100040002103000821030008210300082103000800
:1000500021030008210300082103000821030008F0
:1000600021030008210300082103000821030008E0
:10007000210300082103000821030008F103000800
:1000800021030008210300082103000821030008C0
:1000900021030008210300082103000821030008B0
:1000A00021030008210300082103000821030008A0
:1000B0002103000821030008210300082103000890
:1000C00072B6244880F30888234880F30988022008
:1000D00080F31488BFF36F8F00F0AAFF00F030FAAE
:1000E0001E481F491B4A914202DA08600431FAE7B0
:1000F0001C49194A914202DA08600431FAE71A49A8
:100100001A4A1B4B9A4204DA086810600431043220
:10011000F8E700201749184A914202DA08600431D2
:10012000FAE700F045FF00F07BFF144C144DAC42A1
:1001300003DA216888470434F9E700F049FD114CDF
:10014000114DAC4203DA216888470434F9E70F49BE
:1001500008470000000200200004002055555555B6
:1001600000000020000200204812000800040020C7
:100170000004002000040020CC060020C00000087D
:10018000C0000008C0000008C000000811100008EE
:10019000F0B544464D4656465F46F0B46B46CB60DC
:1001A000C3689D46F0BCA046A946B246BB46F0BD1A
:1001B00000F066FA62B6281CA047002000F0C8FED6
:1001C00000F08EFA00F014FA00F05AFA014A024BDD
:1001D0001360FEE704ED00E0000000800000000076
:1001E000024B034A9B699A61FEE7C0462004002047
:1001F0002C110008000000000000000000000000BA
:10020000EFF30983203383F3098862B67047C04651
:10021000054B1A6B002A03D15A6B002A00DD704788
:1002200072B6024ADA62FEE72004002034110008A8
:10023000054B1A6B002A03DB5A6B002A00DD70475E
:1002400072B6024ADA62FEE7200400203C11000880
:1002500010B50400FFF7ECFF002C19D02023E25C5E
:10026000002A10D00F2A0ED00022E254A2680B4BB5
:100270001B6899689142FBD25A6823606260200033
:1002800014605C6010BD72B6054A044BDA62FEE78A
:1002900072B6034A014BDA62FEE7C0462004002032
:1002A00094110008000000000000000000000000A1
:1002B000064B1A6B002A05DD5A6B002A02DD00226C
:1002C0005A63704772B6024ADA62FEE720040020E1
:1002D00044110008000000000000000000000000C1
:1002E000064B1A6B002A02DD5A6B002A03D072B645
:1002F000034ADA62FEE701225A63704720040020B5
:100300004C11000800000000000000000000000088
:1003100030BFFDE70000000000000000000000000A
:10032000FEE7C046000000000000000000000000E2
:1003300070B5174D0400AE69FFF76AFF2A68B3680D
:10034000AA4202D0926893421ED300226262A2683F
:100350009A4215D93000FFF77BFF012220230100CC
:10036000AC61E254EFF30983C269243B9A4203D89B
:100370002000FFF70DFF70BD72B6064BEB62FEE783
:100380002000FFF765FFF6E772B6034BEB62FEE76E
:1003900020040020541100081C1200080000000076
:1003A00070B50600FFF734FF20230C4CA5692068C8
:1003B000EE540268546022600122A061C254EFF33F
:1003C0000983EA69243B9A4203D82900FFF7E0FE3B
:1003D00070BD72B6024BE362FEE7C0462004002007
:1003E00054110008000000000000000000000000A0
:1003F000F0B557464E464546E0B4774672B6474C90
:10040000236B002B02DB626B002A03D072B6444BD5
:10041000E362FEE70133236362B68026F6053369A3
:100420009B070AD472B6236B002B02DD626B002A95
:1004300035D072B63B4BE362FEE7326172B6FFF72E
:100440004FFFFFF7F5FEFFF7F3FEE569726AA16A59
:10045000AB68501A984240D31C2291460022A14416
:1004600090460EE0FFF724FF62B62869D04772B6C7
:10047000FFF736FFE569726AA16AAB68501A8342DA
:100480002BD84A46CB18A3622B685A60EA68E3610E
:1004900092464246EA604B45E4D1F260E2E7013B16
:1004A000236362B60F3710D072B6EFF30983203B97
:1004B00083F3098880225204DA612168A26989687D
:1004C0009268914206D8184A9A611CBC9046994697
:1004D000A246F0BD154A9A61F7E720001C3085421C
:1004E00018D05B189B1A012B00D802239A1880237E
:1004F000DB05D868800709D55A635B6A521A5B1A14
:10050000934207D972B60A4BE362FEE772B6094B13
:10051000E362FEE7FFF7CCFE62B683E7200400202B
:10052000641100086C110008CC010008C10100082A
:100530003C1200084010000800000000000000000D
:100540000123022027490A6813430B600A68254BE0
:100550001042FBD003215A680C208A4319005A60CC
:100560005A685A604B681F4A0340FBD1F920116852
:10057000014011605360516B01330B435363F738F3
:10058000516B184B0842FBD00122596A02200A43E2
:100590005A621A00516A134B0842FBD0A022920300
:1005A0005A60002280218020DA621A631A684904A6
:1005B0000A431A60800419680A4A0142FBD01121DB
:1005C000094B0C201960022351680B435360536898
:1005D00004490340082BFAD18A69073B13438B6116
:1005E0007047C0460010024000200240000000009A
:1005F0002023F0B54746984642461D4D80B42F68EB
:10060000AC693E681F3B75602E60BB54AF61FFF75D
:100610000FFE002C24D04346E35C002B1CD00F2B94
:100620001AD000234246A354A36800E03668B2689B
:100630009A42FBD87368266063601C607460EFF3B5
:100640000983E269243B9A420ED838002100FFF763
:100650009FFD04BC9046F0BD72B6064BEB62FEE710
:1006600072B6044BEB62FEE772B6034BEB62FEE739
:100670002004002088100008541100080000000029
:10068000064B1A6B002A04D1596B002901DD5A630D
:10069000704772B6024ADA62FEE7C04620040020C4
:1006A00074110008000000000000000000000000BD
:1006B00010B5FFF7E5FF074B1A689A4204D0996915
:1006C00092688968914201D362B610BD72B6024A3F
:1006D000DA62FEE720040020581000080000000045
:1006E000064B1A6B002A02D15A6B002A03D072B64D
:1006F000034ADA62FEE701225A63704720040020B1
:100700007C11000800000000000000000000000054
:1007100070B505000C0072B6FFF7E2FFFFF788FD29
:10072000002C02D0631E234204D072B6134A144B2D
:10073000DA62FEE7134960420A68EB18013A1419BD
:10074000114A044012680340121B93420FD8E31869
:100750000B60FFF795FF0A4B1A689A4204D099691B
:1007600092688968914204D362B6200070BD00246B
:10077000EFE772B6054ADA62FEE7C046B811000834
:1007800020040020C8060020780500207010000812
:10079000F0B55F4656464D464446F0B483B00190EE
:1007A00072B6FFF79DFF2222AD4C2669B35C013380
:1007B000B354FFF765FF2368A34204D0A2699B6886
:1007C00092689A4240D362B6019BF269934200D18B
:1007D0008BE072B6FFF784FF33690093A34200D128
:1007E00080E022229B5CFF2B00D177E0009901334F
:1007F0008B54FFF745FF2368A34204D0A2699B688E
:1008000092689A4224D362B672B6FFF769FF222239
:10081000B35C002B00D174E0013BB354326A914BBE
:1008200013400F2B18D0FFF72BFF2368A34204D0EF
:10083000A2699B6892689A425FD362B6009B002BC4
:1008400000D1A6E1009EBFE772B6874BE362FEE7E8
:1008500072B6854BE362FEE7736932691A613269E9
:100860005361FFF70DFF2368A34204D0A2699B6880
:1008700092689A4249D362B621230322F35C134063
:10088000012B21D0022BD9D1356CF66972B6FFF756
:1008900027FFFFF7CDFC002D12D0002E10D02B68C3
:1008A00033602E60FFF7ECFE2368A342C5D0A26937
:1008B0009B6892689A42C0D272B66C4BE362FEE7C4
:1008C00072B66B4BE362FEE7F569002D02D0072399
:1008D0001D421ED072B6674BE362FEE772B6664BEE
:1008E000E362FEE70023009383E7300003B03CBCE3
:1008F00090469946A246AB46F0BD72B65F4BE362A6
:10090000FEE772B65E4BE362FEE772B65B4BE362F4
:10091000FEE70823083D2E68994637006B68B1440E
:100920000733DB086B60103772B6FFF7D9FEA36997
:100930009A46FFF76DFC002F00D126E1B069002830
:1009400037D020239C4653469A6883689A4214D92C
:1009500063468260C35C062B00D101E1072B00D106
:10096000EAE0002B09D101222023C2540268436827
:100970001A6002685360FFF76BFC3B0052461B682D
:100980009F4203D0996890688142F8D292465146BE
:1009900013605A6806204A60116059604F62FFF781
:1009A000FFFCB3699A4500D1F5E072B6354BE362BE
:1009B000FEE75346B3619B6BF36153469F63FFF7BA
:1009C0005FFE2368A34205D0A2699B6892689A42A1
:1009D00000D2EDE062B64B4649469D4206D35A68C6
:1009E0000132D2009A18954200D2DDE01A6899428D
:1009F00001D09D4203D9002A03D0954201D31300B0
:100A0000EBE72A601D60696828684A1CD200AA18B2
:100A1000824206D15068844661440131696012689F
:100A20002A6059684A1CD2009A18954200D17AE08F
:100A3000A3699A4672B6FFF753FE53469B6B002B91
:100A40006DD09A689346524503D072B60E4BE3625E
:100A5000FEE79F421AD072B60B4BE362FEE7C04638
:100A600020040020FF00FF00F01100087C100008A7
:100A7000D8110008FC1100089C100008581000084C
:100A80002C120008CC110008E4110008F369994603
:100A900053464A469A63FFF7BBFB3569AF423BD0EA
:100AA0005346DB6BA8469A464D46002D0AD0FFF709
:100AB000AFFB2B689D4203D09B689A4500D29A46B3
:100AC000ED68F2E7524645465B469A602B68404621
:100AD00033615F60AB6BB561F361AF63FFF7B8FB88
:100AE000FFF796FBFFF7A4FB2268A36992689B6857
:100AF0009A4201D9FFF77CFDFFF7C2FD2368A342AC
:100B000000D19AE6A2699B6892689A4200D394E663
:100B100072B6294BE362FEE70023B361ECE772B6DD
:100B2000264BE362FEE76A688A1801325A602A6837
:100B30001A60A3699A467DE7436801689446196084
:100B400001684B60416A0B001B68994202D09A68A9
:100B50009445F9D95A6803604260106058600CE708
:100B60004168036890460B6003685960416A0B0056
:100B70001B68994202D09A689045F9D95A68036077
:100B80004260106058608868DDE672B60C4BE36224
:100B9000FEE71800AAE653469B6B9F4200D10EE782
:100BA00072B6074BE362FEE772B6064BE362FEE7FE
:100BB00072B6014BE362FEE764100008E41100081E
:100BC000CC110008FC11000800000000000000002B
:100BD000BA4B01219A6A0022494270B599629A6221
:100BE000186919611A61D968B548802401438020C9
:100BF000D960DA60D96940050143B248D96101681A
:100C0000640021430160C021186A890001408020EE
:100C10008000814203D08021490219621A6280203B
:100C2000A64B00021A6A024207D18022196A92007A
:100C3000114319621A6A02431A629C229F4CD20322
:100C40006369012013439022636100239E49D2050A
:100C5000404253609060D1609C49802551619C491D
:100C6000AD0211629B4953621160C0219A4A890208
:100C70005360916099498026D16099493606516147
:100C8000136253621560974A974D53609360D56025
:100C90005161136253621360944A53609360D5604C
:100CA00051610121136253621360E269C3250A4353
:100CB000E2618F4CAD00A2680A43A26080228D4C95
:100CC000D20594628C4CD06293615363D3605360BD
:100CD0005161116062591202120A3243625180223C
:100CE0008D3D1202FF3D62512260844C22001C3275
:100CF000E26122626062824A8248A3601060824898
:100D0000824AA3621060824A82482363636324603C
:100D100064601060100010301061506159209360C1
:100D2000D360936180222354E36623675A33E154EE
:100D3000794B2264626723652200230060323833D6
:100D4000236163612266A3612200744B6432636590
:100D500058236266A266724AE154116A714BA46418
:100D60000B40E464136262B66F4D2800FFF710FD7C
:100D7000002803D072B66D4BE362FEE729002B001A
:100D80005522D8311A7001339942FBD172B6FFF760
:100D9000A7FCFFF74DFAAC232A00ED506C32103B54
:100DA000EA50634B8022EB67002398210220614EBA
:100DB000AB500C32AE508B3A6A5018316854013146
:100DC0006B541B316A5004396B5004396B50B23389
:100DD000EA54594A0A3BEA502800A422083BEC5046
:100DE00063699030AB502A001861B823B832EA50DA
:100DF0002B00BC22BC33AB500432AB506061FFF718
:100E000097FAFFF755FC4D4D2800FFF7C1FC00286D
:100E100003D072B64A4BE362FEE729002B0055224D
:100E20004931FF311A7001338B42FBD172B6FFF7A3
:100E300057FC8E232A005B00ED50DC32103BEA5059
:100E4000404A203BEA500023F02284210220AB508C
:100E50000C32AE5049007C3A6A5018316854222155
:100E6000FF316B541B316A50B832AB50043AAB506F
:100E7000343A2333FF3AFF33EA54334A0A3BEA5009
:100E80008A22083BEC5063695200681CAB50FF306B
:100E90002A00186194232932FF325B00EA502B00AC
:100EA00096222D33FF335200AB500432AB506061B9
:100EB000FFF73EFAFFF7FCFBFEE7C04600100240DA
:100EC000FFFFBFFF007000400000556530FF0000CD
:100ED00022220011AAA0802A00040048555554552A
:100EE000FFFF000000080048555555550014004804
:100EF00000580140BF12000000E100E02004002083
:100F0000C8060020D0060020001800207805002028
:100F10000004002011070008A011000800020020B2
:100F200000ED00E0FFFF00FFA00400204C100008CF
:100F300011030008B1010008841100088005002099
:100F400008120008E10100088C11000800000000F0
:100F500070B5060072B6FFF7C3FB114DAC6966624F
:100F60002600A06A2836864206D00368A362FFF7EF
:100F70006FF9A06AB042F8D12223E35C002B08D1BC
:100F80002123E35C9B0704D1226963691A6122690A
:100F900053610F20FFF704FA72B6024BEB62FEE7D3
:100FA00020040020341000080000000000000000B1
:100FB00080229446F0B50026104F114D114C124B73
:100FC0001249BC449C420DD91A0001C901C2944285
:100FD000FBD8DA431419A4080134A4001B199D425C
:100FE00002D940C39D42FCD81037674504D0BC6885
:100FF000FD6839687B68E5E7F0BDC046AC100008C5
:10100000CC060020CC060020CC06002048120008A8
:10101000FEE7C046000000000000000000000000E5
:101020007047C04600000000000000000000000003
:041030007047C046FF
:101034006368546864457869745300007374536535
:1010440074416C61726D0000636854686443726536
:10105400617465006368537973556E6C6F636B00DC
:101064006368537973556E6C6F636B00636853796F
:1010740073556E6C6F636B006368537973556E6C54
:101084006F636B0063685363685265616479416898
:10109400656164490000000063685265674E6578C5
:1010A400745468726561640048120008CC0600201C
:1010B400CC060020CC0600204812000800000000E6
:1010C40000000000000000004812000800000000BA
:1010D40000000000000000004812000800000000AA
:1010E400000000000000000048120008000000009A
:1010F400000000000000000048120008000000008A
:101104000000000000000000481200080000000079
:101114000000000000000000481200080000000069
:1011240000000000000000006661646572000000B9
:101134005356233131000000535623313000000050
:101144005356233700000000535623360000000096
:10115400737461636B206F766572666C6F770000E1
:101164005356233800000000535623390000000072
:10117400535623350000000053562334000000006A
:1011840069646C65000000006E6F6E616D6500003F
:101194006368536368526561647949006D61696E7F
:1011A40000160020040444080C1014181C202122EA
:1011B400000000006368436F7265416C6C6F6341AB
:1011C4006C69676E6564490063684D74784C6F633D
:1011D4006B5300006368506F6F6C4672656549001D
:1011E40063684D7478556E6C6F636B0063685379F4
:1011F40073556E6C6F636B0063684865617046720B
:10120400656500006368546864437265617465537E
:101214007461746963000000636853636857616BA9
:101224006575705300000000636854686452656C0F
:10123400656173650000000063685654446F546927
:04124400636B49008F
:04000005080000C12E
:00000001FF
